:100000000C942A000C9447000C9447000C94470071
:100010000C9447000C9447000C9447000C94470044
:100020000C9447000C9447000C9447000C94470034
:100030000C9447000C9447000C9447000C94470024
:100040000C9447000C9447000C9447000C94470014
:100050000C94470011241FBECFE5D8E0DEBFCDBF12
:1000600010E0A0E6B0E0E8EEF9E002C005900D92E5
:10007000AA37B107D9F720E0AAE7B0E001C01D9286
:10008000AA38B207E1F70E943C010C94F2040C94E8
:100090000000482F4150550B81E090E001C0880FCF
:1000A0004A95EAF792B3613019F4892B82BB08951F
:1000B00080958923FBCF90E080E0E1E0F0E045B35C
:1000C0009C012C5F3F4FBF0102C0660F771F2A952E
:1000D000E2F79B01462B45BB50E040E063B370E084
:1000E000042E02C0759567950A94E2F760FF20C060
:1000F00061E070E0042E02C0660F771F0A94E2F7F9
:1001000023B330E026233723232B59F4FC01EE0FD1
:10011000FF1FEE0FFF1FE05AFF4FE40FF51F808116
:100120000895EFE1FEE43197F1F700C00000E8CF59
:100130004F5F5F4F4430510589F635B32095232337
:1001400025BB01968430910509F0B9CF88E5089563
:1001500080FF0BC0C29A81FF0AC0C39A82FF09C008
:10016000C49A83FF08C0C59A0895C298F4CFC39873
:10017000F5CFC498F6CFC5980895CF93C82FC19AEC
:1001800082958F700E94A800C198C19A8C2F0E94FE
:10019000A800C19880E18A95F1F700C0CF91089539
:1001A000C0980C94BD00C09A0C94BD00CF93DF930F
:1001B000EC018991811103C0DF91CF9108950E94D4
:1001C000D300F7CF6295660F660F607C860F80685C
:1001D0000C94D00081E00E94D00083EF91E0019761
:1001E000F1F700C00000089582E00E94D00083EF84
:1001F00091E00197F1F700C000000895CF93BA9AFB
:10020000BB9ABC9ABD9AB99AB89A85EA9EE00197C2
:10021000F1F700C00000C098C198C3E0C19A83E024
:100220000E94A800C19881EE94E00197F1F700C008
:100230000000C15099F7C19A82E00E94A800C198BD
:1002400089EF90E00197F1F700C0000088E20E947A
:10025000D00088E00E94D00081E00E94D00083EFAF
:1002600091E00197F1F700C0000086E00E94D00005
:100270008CE0CF910C94D000CDB7DEB764970FB669
:10028000F894DEBF0FBECDBF0E94FE000E94F400B6
:100290008FEF81BB14BAD12CC12CF12CE12CB12CE5
:1002A000A12C10E000E0CE0101964C0197E7492E09
:1002B00090E0592E20E7222E20E0322E0E945B0093
:1002C0008835E1F3682E082E000C770890E3691A50
:1002D00071082AE062167104A8F50E94EA0001156F
:1002E000110509F4A6C0C80101970997F8F42AE09E
:1002F000209FC001219F900D11248C01060D171D18
:100300001F930F935F924F929F928F920E942102B0
:100310000F900F900F900F900F900F9060E080E083
:100320000E94E200C4010E94D600C8CFC8010A970B
:100330008A359105E0F2C12CD12CB12CA12C00E022
:1003400010E0DECF8D3241F1FCF48A32A1F18B3224
:10035000B9F60E94EA000115110519F0A00EB11EB0
:100360006501E12CF12CDF92CF925F924F929F9228
:100370008F920E9421020F900F900F900F900F907C
:100380000F9000E010E0CACF8D3349F1833409F0BB
:10039000B7CF0E94EA00CFCF0E94EA0001151105F5
:1003A00039F0A114B10409F446C0A01AB10A6501DC
:1003B000EE24E394D7CF0E94EA000115110561F005
:1003C000A114B104D9F1C501809F5001819FB00CE7
:1003D000909FB00C1124650182E0E82EC3CF650127
:1003E000C00ED11EE114F10471F06501C01AD10AEA
:1003F00091E0E916F10439F0A09E6001A19ED00CB5
:10040000B09ED00C1124DF92CF923F922F929F92F8
:100410008F920E94210261E080E00E94E200C4010C
:100420000E94D6000F900F900F900F900F900F909A
:1004300067CF830165CF68015801BACF68015801C1
:10044000CBCFAEE0B0E0E7E2F2E00C94C9040D8956
:100450001E8986E08C831A8309838FEF9FE79E8332
:100460008D83AE01475E5F4F6F89788DCE01019617
:100470000E9444022F813885020F131FF801108259
:100480002E96E4E00C94E504AFE0B0E0EAE4F2E09C
:100490000C94BB047C013B018A01DC0117961C9281
:1004A0001E92169713968C9181FFBEC19AE0292E59
:1004B000FE0131964F01D70113969C91F30193FDF4
:1004C000859193FF81913F01882309F444C18532CE
:1004D00039F493FD859193FF81913F01853229F491
:1004E000B70190E00E942D04E6CFB12C412C512C95
:1004F000BFE1B51538F08B3209F188F4803201F193
:10050000833221F157FC3AC020ED280F2A3040F504
:1005100056FE1FC0B29C200D1124B22E06C08D3293
:1005200091F0803379F7689450F8F30193FD859149
:1005300093FF81913F018111DBCF20C0689451F876
:10054000689452F8F2CF689453F8EFCF689454F857
:10055000ECCF429C200D1124422E689455F8E5CF33
:100560008E3229F456FCF7C0689456F8DECF8C36EC
:1005700019F4689457F8D9CF8836B9F2982F9F7D2F
:1005800095549330C0F08336A1F18337C1F18335A0
:1005900009F05BC0D801CD90DD908D016B2D70E02E
:1005A00056FC02C06FEF7FEFC6010E9417045C018A
:1005B000689457F80AC00C5F1F4FEFE3E983AA2441
:1005C000A394B12C6401E89457F853FC04C04A1476
:1005D0001B0409F018F5342CA114B10431F53320B3
:1005E00009F469CFB70180E290E00E942D043A94AB
:1005F000F6CFD8018C9189830E5F1F4FE0CFF801B1
:10060000C190D1908F016B2D70E056FC02C06FEF4E
:100610007FEFC6010E9422045C01D5CFB70180E2C2
:1006200090E00E942D044A94D2CFF60157FC8591A8
:1006300057FE81916F01B70190E00E942D043110A7
:100640003A94B1E0AB1AB108C7CF843619F08936B5
:1006500009F071C0F80157FE67C0619171918191F5
:1006600091918F01E52DEF76DE2E97FF09C09095D1
:100670008095709561957F4F8F4F9F4F6894D7F805
:100680002AE030E0A4010E945D04C82EC818AC2CFA
:100690005D2CD6FE0CC0E89450F8CB1440F4D4FE88
:1006A00005C0D2FC03C05D2D5E7E552EAB2C54FEE2
:1006B00093C0FE01EC0DF11D8081803309F085C0EF
:1006C000652D697E562E752D7870372E53FC93C09C
:1006D00050FE8DC0BC2CA41410F4B40CBA1854FEF7
:1006E00090C0B70180E390E00E942D0452FE07C045
:1006F00088E751FC88E590E0B7010E942D04CB14F7
:1007000008F48BC0CA94D12C8FEFC81AD80AC80C31
:10071000D91CD6018E916D01B70190E00E942D0485
:100720008C149D04B1F75BCF61917191072E000C81
:10073000880B990B96CFD52CE894D4F82AE085370E
:1007400029F1F52DF97FDF2E8037A1F058F4883597
:10075000A1F08F36D1F0F701868197812F96E2E1E3
:100760000C94D7048837B9F7D4FE02C06894D2F845
:1007700020E10CC06894D4F8F7CF54FE03C02F2FAB
:100780002660D22E20E132E002C028E030E0F801FD
:10079000D7FE15C041915191619171914C875D8750
:1007A0006E877F878F01A4016C857D858E859F85EF
:1007B0000E945D04C82EC818E894D7F868CF8191CC
:1007C0009191AC0170E060E0E9CF52FC02C0A394CB
:1007D0007ACFA394A39477CF852D867809F473CF2D
:1007E000F6CFB70180E290E00E942D04A394A414F8
:1007F000C0F3312C74CF342C3A18A41408F46FCF02
:10080000F8CF852D867809F47ACF8BE251FE80E20D
:1008100057FC8DE2B70190E070CFB70180E390E024
:100820000E942D04BA946BCF8FEF9FEF97CFFC01FE
:100830000590615070400110D8F7809590958E0F0B
:100840009F1F0895FC016150704001900110D8F77E
:10085000809590958E0F9F1F08950F931F93CF93B0
:10086000DF93182F092FEB018B8181FD09C01FEF4A
:100870000FEF812F902FDF91CF911F910F9108954E
:1008800082FF14C02E813F818C819D8128173907FA
:100890003CF4E881F981CF01019699838883108324
:1008A0008E819F8101969F838E83E3CFE885F985B2
:1008B000812F0995892BA1F3DACFFA01AA272830D5
:1008C00051F1203181F1E8946F936E7F6E5F7F4F1D
:1008D0008F4F9F4FAF4FB1E03ED0B4E03CD0670F99
:1008E000781F891F9A1FA11D680F791F8A1F911DEC
:1008F000A11D6A0F711D811D911DA11D20D009F43C
:1009000068943F912AE0269F11243019305D31937D
:10091000DEF6CF010895462F4770405D4193B3E066
:100920000FD0C9F7F6CF462F4F70405D4A3318F00D
:10093000495D31FD4052419302D0A9F7EACFB4E0BE
:10094000A6959795879577956795BA95C9F7009776
:100950006105710508959B01AC010A2E0694579517
:10096000479537952795BA95C9F7620F731F841F6E
:10097000951FA01D08952F923F924F925F926F9204
:100980007F928F929F92AF92BF92CF92DF92EF921F
:10099000FF920F931F93CF93DF93CDB7DEB7CA1BA0
:1009A000DB0B0FB6F894DEBF0FBECDBF09942A88CB
:1009B000398848885F846E847D848C849B84AA8473
:1009C000B984C884DF80EE80FD800C811B81AA8100
:1009D000B981CE0FD11D0FB6F894DEBF0FBECDBFCB
:0809E000ED010895F894FFCF2A
:1009E8002A30233D313233433435362B3738392DCD
:0A09F80057796E696B3A2025640000
:00000001FF
