:100000000C94A7000C94BC000C94BC000C94BC0095
:100010000C94BC000C94BC000C94BC000C94BC0070
:100020000C94BC000C94BC000C94BC000C94BC0060
:100030000C94BC000C94BC000C94BC000C94BC0050
:100040000C94BC000C94BC000C94BC000C94BC0040
:100050000C94BC0000407A10F35A00A0724E1809AC
:100060000010A5D4E80000E87648170000E40B541F
:10007000020000CA9A3B000000E1F50500008096EE
:100080009800000040420F000000A0860100000020
:10009000102700000000E8030000000064000000DA
:1000A00000000A00000000000100000000002C76A3
:1000B000D888DC674F0823DFC1DFAE59E1B1B796BE
:1000C000E5E3E453C63AE651997696E8E6C284261B
:1000D000EB898C9B62ED407C6FFCEFBC9C9F40F2F7
:1000E000BAA56FA5F490055A2AF75C936B6CF96773
:1000F0006DC11BFCE0E40D47FEF520E6B500D0ED38
:10010000902E0300943577050080841E080000209F
:100110004E0A000000C80C333333330F986E12833D
:100120001141EF8D2114893BE65516CFFEE6DB1811
:10013000D1844B381BF77C1D901DA4BBE4242032D6
:1001400084725E228100C9F124ECA1E53D271124CF
:100150001FBECFE5D8E0DEBFCDBF10E0A0E6B0E027
:10016000E4E9FDE002C005900D92A636B107D9F78B
:100170000E9493010C94C8060C9400003E9A3F988C
:10018000309A319A329A379A0895811107C0389877
:10019000369A3699FECF84B195B10895813011F425
:1001A000389AF6CF8FEF9FEF0895681710F4909A62
:1001B000089590980895482F461B550B9A0157FFB4
:1001C00003C03195219531092A3031052CF068178B
:1001D00010F4919A08959198089521E030E0A901D2
:1001E00002C0440F551F8A95E2F7CA0192B36130ED
:1001F00019F4892B82BB089580958923FBCF80FF5A
:100200000BC0C29A81FF0AC0C39A82FF09C0C49A78
:1002100083FF08C0C59A0895C298F4CFC398F5CF5C
:10022000C498F6CFC5980895CF93C82FC19A8295E8
:100230008F700E94FF00C198C19A8C2F0E94FF000E
:10024000C19880E18A95F1F700C0CF910895C098D8
:100250000C941401C09A0C941401CF93DF93EC0119
:100260008991811103C0DF91CF9108950E942A01E5
:10027000F7CF6295660F660F607C860F80680C94DE
:10028000270181E00E94270183EF91E00197F1F7B8
:1002900000C00000089582E00E94270183EF91E0F2
:1002A0000197F1F700C000000895CF93BA9ABB9A66
:1002B000BC9ABD9AB99AB89A85EA9EE00197F1F77F
:1002C00000C00000C098C198C3E0C19A83E00E94BA
:1002D000FF00C19881EE94E00197F1F700C00000A3
:1002E000C15099F7C19A82E00E94FF00C19889EF3E
:1002F00090E00197F1F700C0000088E20E9427011A
:1003000088E00E94270181E00E94270183EF91E0AD
:100310000197F1F700C0000086E00E9427018CE001
:10032000CF910C942701CDB7DEB7AC970FB6F894F8
:10033000DEBF0FBECDBF8FEF81BB0E94BE000E940B
:1003400055010E944B0185E0A82EF12C8F2D0E94B3
:10035000C500A89E9001A99E300D1124C901B0E0EE
:10036000A0E089A79AA7ABA7BCA7B901CD010E94BD
:10037000320320E030E040E85AE369A77AA78BA770
:100380009CA769A57AA58BA59CA50E94C003B62E43
:10039000C72ED82EE92E8E010F5F1F4F22E044E0BA
:1003A00069A77AA78BA79CA769A57AA58BA59CA509
:1003B0000E942D0420E030E040EA50E4B9A6CAA62D
:1003C000DBA6ECA669A57AA58BA59CA50E94910247
:1003D00020E030E048EC52E469A77AA78BA79CA7FD
:1003E00069A57AA58BA59CA50E94C0030C5E1F4F32
:1003F00022E044E069A77AA78BA79CA769A57AA504
:100400008BA59CA50E942D046F2D80E00E943901D0
:10041000CE0101960E942D0180E690E00E942D0100
:10042000C8010E942D0184E690E00E942D0191E018
:10043000F91274C080E00E94C5008C0181E00E9426
:10044000C5009C0150E040E029A73AA74BA75CA754
:10045000CA01B9010E94320320E030E040E85AE3CB
:1004600069A77AA78BA79CA769A57AA58BA59CA548
:100470000E94C00320E030E048EC52E469A77AA76C
:100480008BA79CA769A57AA58BA59CA50E94C003F4
:1004900069A77AA78BA79CA769A57AA58BA59CA518
:1004A0000E940303F62EC801B0E0A0E089A79AA736
:1004B000ABA7BCA7B801CD010E94320320E030E019
:1004C00040E85AE369A77AA78BA79CA769A57AA5F4
:1004D0008BA59CA50E94C00320E030E048EC52E4CC
:1004E00069A77AA78BA79CA769A57AA58BA59CA5C8
:1004F0000E94C00369A77AA78BA79CA769A57AA5C4
:100500008BA59CA50E940303162F6F2D812F0E949F
:10051000D5006F2D812F0E94DB0017CFFF24F394AD
:1005200015CF0E94A5020C9486030E947F0358F009
:100530000E94780340F029F45F3F29F00C946F0388
:1005400051110C94BA030C9475030E94970368F33D
:100550009923B1F3552391F3951B550BBB27AA277C
:1005600062177307840738F09F5F5F4F220F331FB6
:10057000441FAA1FA9F335D00E2E3AF0E0E832D07E
:1005800091505040E695001CCAF72BD0FE2F29D081
:10059000660F771F881FBB1F261737074807AB0753
:1005A000B0E809F0BB0B802DBF01FF2793585F4FC8
:1005B0003AF09E3F510578F00C946F030C94BA0307
:1005C0005F3FE4F3983ED4F3869577956795B795AA
:1005D000F7959F5FC9F7880F911D9695879597F9B5
:1005E0000895E1E0660F771F881FBB1F621773072E
:1005F0008407BA0720F0621B730B840BBA0BEE1F43
:1006000088F7E09508950E949F0388F09F5798F01F
:10061000B92F9927B751B0F0E1F0660F771F881F07
:10062000991F1AF0BA95C9F714C0B13091F00E9421
:10063000B903B1E008950C94B903672F782F882788
:10064000B85F39F0B93FCCF3869577956795B39548
:10065000D9F73EF490958095709561957F4F8F4FB7
:100660009F4F0895E89409C097FB3EF490958095BC
:10067000709561957F4F8F4F9F4F9923A9F0F92F68
:1006800096E9BB279395F695879577956795B795E6
:10069000F111F8CFFAF4BB0F11F460FF1BC06F5FCC
:1006A0007F4F8F4F9F4F16C0882311F096E911C0DE
:1006B000772321F09EE8872F762F05C0662371F0FF
:1006C00096E8862F70E060E02AF09A95660F771F13
:1006D000881FDAF7880F9695879597F9089597F907
:1006E0009F6780E870E060E008959FEF80EC0895D8
:1006F00000240A9416161706180609060895002401
:100700000A9412161306140605060895092E03947A
:10071000000C11F4882352F0BB0F40F4BF2B11F4EE
:1007200060FF04C06F5F7F4F8F4F9F4F089557FD4D
:100730009058440F551F59F05F3F71F04795880F4F
:1007400097FB991F61F09F3F79F0879508951216E6
:1007500013061406551FF2CF4695F1DF08C0161692
:1007600017061806991FF1CF869571056105089443
:100770000895E894BB2766277727CB0197F908955A
:100780000E94D3030C9486030E94780338F00E94E1
:100790007F0320F0952311F00C946F030C947503E4
:1007A00011240C94BA030E94970370F3959FC1F330
:1007B000950F50E0551F629FF001729FBB27F00D0F
:1007C000B11D639FAA27F00DB11DAA1F649F662764
:1007D000B00DA11D661F829F2227B00DA11D621FB3
:1007E000739FB00DA11D621F839FA00D611D221F6D
:1007F000749F3327A00D611D231F849F600D211D51
:10080000822F762F6A2F11249F5750409AF0F1F0D3
:1008100088234AF0EE0FFF1FBB1F661F771F881F3C
:1008200091505040A9F79E3F510580F00C946F0302
:100830000C94BA035F3FE4F3983ED4F38695779522
:100840006795B795F795E7959F5FC1F7FE2B880FE2
:10085000911D9695879597F90895EF920F931F93A1
:10086000CF93DF9300D000D00F92CDB7DEB7322FF9
:100870000D8354E047FD54E1242F27FD2195E52EFB
:10088000032F4D81512F69837A838B839C836981E8
:100890007A818B819C810E945A048D81912F0F90C7
:1008A0000F900F900F900F90DF91CF911F910F91AC
:1008B000EF900895ADE0B0E0E0E6F4E00C9491062E
:1008C0006A01F22E402E2E2C102F2BE3201708F455
:1008D0001BE31F5F012F27E0AE014F5F5F4F6A8769
:1008E0007B878C879D876A857B858C859D850E940B
:1008F000B2054C015980852D89700DE2813039F0A7
:100900000BE221FC04C0022D017020FC00E2422D0C
:100910004071342E952D987053FE41C083E0011133
:1009200084E08F1598F5F81A31100BC0EF2CF12CDC
:10093000A70160E270E0C6010E948A06CE0CDF1CAF
:10094000F12C002319F0F60101936F0186010D5F70
:100950001F4F22FE1DC08EE4D6018C9391E41196A8
:100960009C93119712968C93EF2CF12CA70160E2C7
:1009700070E0C8010E948A06E00EF11ED7011C92A9
:100980008EEF9FEF2D96E2E10C94AD06F12CCCCFCB
:100990008EE6F601808391E691838283E5CF52FE55
:1009A0003EC083E0011184E08F1510F49F2D981B49
:1009B00031100BC0E92EF12CA70160E270E0C601F6
:1009C0000E948A06CE0CDF1C90E0002319F0F6018D
:1009D00001936F017601B3E0EB0EF11C22FE14C00F
:1009E00089E4F60180838EE4818386E48283092F83
:1009F00010E0A80160E270E0C7010E948A06F701DA
:100A0000E00FF11F1082BCCF89E6D6018C938EE6F1
:100A100011968C93119786E612968C93E8CF540129
:100A200097FE02C0B12CA12C81E090E0011102C020
:100A300090E080E095012F5F3F4F820F931F642C61
:100A4000712C93012F5F3F4F411002C030E020E036
:100A5000820F931FF816190609F00CF45FC0F81AFC
:100A600031107DC023FC0BC0EF2CF12CA70160E2FC
:100A700070E0C6010E948A06CE0CDF1CF12C002318
:100A800029F0F60101936F0131100BC0EF2CF12C0E
:100A9000A70160E370E0C6010E948A06CE0CDF1C4D
:100AA000F12C180D9A81252D207154FE03C091332D
:100AB00009F411501116A4F5193008F018E0F401EA
:100AC000EA19FB0941E050E04C0F5D1FE40FF51FF0
:100AD000A401411B51097194619471083EE28A148A
:100AE0009B0404F14A155B05ECF48181B1E0AB1A7B
:100AF000B10886010F5F1F4FA614B704ACF0D601F2
:100B00008C93BFEFAB16BB0631F486010E5F1F4F0F
:100B1000D60111963C9331966801E1CFF12CA0CF1C
:100B200011E0CDCF80E3E2CF8A149B0439F49633F1
:100B300020F4953319F4211101C081E3F60180837B
:100B4000EF2CF12CA70160E270E0C8010E948A0638
:100B50000E0D1F1DD8011C9290E080E013CF0111F3
:100B600090CF9FCF283008F027E03327DA01990F84
:100B7000311D87FD916000966105710539F4326081
:100B80002E5F3D9330E32A95E1F708959F3F30F0C3
:100B900080387105610509F03C5F3C5F3D93913001
:100BA00008F08068911DDF93CF931F930F93FF92FE
:100BB000EF92192F987F9695E92F96959695E90FC4
:100BC000FF27E255FF4F99273327EE24FF24A70183
:100BD000E70105900894079428F4360FE71EF81EE5
:100BE000491F511D660F771F881F991F0694A1F793
:100BF0000590079428F4E70EF81E491F561FC11DE3
:100C0000770F881F991F661F0694A1F70590079418
:100C100028F4F80E491F561FC71FD11D880F991FB2
:100C2000661F771F0694A1F70590079420F4490FDB
:100C3000561FC71FD81F990F661F771F881F06945E
:100C4000A9F784911095177041F0D695C7955795DF
:100C50004795F794E7941A95C1F7E4E5F0E06894B6
:100C60001590159135916591959105907FE2739559
:100C7000E118F10A430B560BC90BD009C0F7E10C80
:100C8000F11E431F561FC91FD01D7EF4703311F48F
:100C90008A95E6CFE894015030F0080F0AF4002757
:100CA000021708F4202F2395022F7A3328F079E3D6
:100CB0007D932A95E9F710C07D932A9589F60694CD
:100CC00097956795379517951794E118F10A430B97
:100CD000560BC90BD00998F023957E9173957A3302
:100CE00008F070E37C932013B8F77E9170617D93D8
:100CF00030F0839571E37D9370E32A95E1F7112439
:100D0000EF90FF900F911F91CF91DF91992787FD71
:100D100090950895DC0101C06D9341505040E0F77B
:100D200008952F923F924F925F926F927F928F928F
:100D30009F92AF92BF92CF92DF92EF92FF920F936A
:100D40001F93CF93DF93CDB7DEB7CA1BDB0B0FB674
:100D5000F894DEBF0FBECDBF09942A883988488831
:100D60005F846E847D848C849B84AA84B984C884C7
:100D7000DF80EE80FD800C811B81AA81B981CE0FBE
:100D8000D11D0FB6F894DEBF0FBECDBFED010895A3
:040D9000F894FFCF05
:060D9400562C2000250092
:00000001FF
