:100000000C942A000C9447000C9447000C94470071
:100010000C9447000C9447000C9447000C94470044
:100020000C9447000C9447000C9447000C94470034
:100030000C9447000C9447000C9447000C94470024
:100040000C9447000C9447000C9447000C94470014
:100050000C94470011241FBECFE5D8E0DEBFCDBF12
:1000600010E0A0E6B0E0EAE0F2E002C005900D92F8
:10007000A03AB107D9F720E0A0EAB0E001C01D9294
:10008000A03BB207E1F70E94CE000C94F3000C9461
:1000900000008830A8F5E82FF0E0EB50FF4F0C94FB
:1000A000ED00613011F4909A0895909808956130B0
:1000B00011F4919A089591980895613011F4929AEB
:1000C000089592980895613011F4939A0895939841
:1000D0000895613011F4949A0895949808956130C8
:1000E00011F4959A089595980895613011F4969AAF
:1000F000089596980895613011F4979A0895979805
:10010000089590E080E0E1E0F0E045B39C012C5FD1
:100110003F4FBF0102C0660F771F2A95E2F79B0190
:10012000462B45BB50E040E063B370E0042E02C0B4
:10013000759567950A94E2F760FF20C061E070E072
:10014000042E02C0660F771F0A94E2F723B330E053
:1001500026233723232B59F4FC01EE0FFF1FEE0F4C
:10016000FF1FE058FF4FE40FF51F80810895EFE176
:10017000FEE43197F1F700C00000E8CF4F5F5F4F1A
:100180004430510589F635B32095232325BB0196CC
:100190008330910509F0B9CF88E508958FEF81BBD1
:1001A0000E948100E0EDE80FE830D0F70E2E000C41
:1001B000FF0BE350FF4F0C94ED00909AF1CF919A12
:1001C000EFCF929AEDCF939AEBCF949AE9CF959A8D
:1001D000E7CF969AE5CF979AE3CFEE0FFF1F0590F2
:1001E000F491E02D0994F894FFCF510057005D0081
:1001F000630069006F0075007B00DD00DF00E10037
:0A020000E300E500E700E900EB0071
:10020A000700080009002D000400050006002B0065
:10021A0001000200030043002A00000023003D0001
:10022A0033363923323538303134372A000000006A
:10023A003738392D3435362B313233432A30233D82
:00000001FF
