:100000000C942A000C9447000C9447000C94470071
:100010000C9447000C9447000C9447000C94470044
:100020000C9447000C9447000C9447000C94470034
:100030000C9447000C9447000C9447000C94470024
:100040000C9447000C9447000C9447000C94470014
:100050000C94470011241FBECFE5D8E0DEBFCDBF12
:1000600010E0A0E6B0E0E2E9F2E002C005900D92F7
:10007000A837B107D9F720E0A8E7B0E001C01D928A
:10008000A838B207E1F70E94E9000C943F010C94F4
:100090000000482F4150550B81E090E001C0880FCF
:1000A0004A95EAF792B3613019F4892B82BB08951F
:1000B00080958923FBCF8830A8F5E82FF0E0EF5B2F
:1000C000FE4F0C943901613011F4909A0895909884
:1000D0000895613011F4919A0895919808956130CE
:1000E00011F4929A089592980895613011F4939AB8
:1000F000089593980895613011F4949A089594980E
:100100000895613011F4959A089595980895613095
:1001100011F4969A089596980895613011F4979A7B
:100120000895979808951F93CF93DF9390E080E010
:10013000E1E0F0E045B39C012C5F3F4FBF0102C0FE
:10014000660F771F2A95E2F79B01462B45BB40912E
:100150007000EF0102C0CC0FDD1F4A95E2F7A0E767
:10016000B0E070E060E043B350E04C235D23452BEA
:1001700061F0880F991F880F991FFC01E05AFF4F0B
:100180008081DF91CF911F91089543B31D9150E07D
:1001900002C0559547951A95E2F740FF0AC0FC0149
:1001A000EE0FFF1FEE0FFF1FE05AFF4FE60FF71F86
:1001B000E7CF6F5F7F4F64307105A9F635B32095A7
:1001C000232325BB01968430910509F0B3CF88E540
:1001D000D8CF8FEF81BB14BA01E010E00E949300EA
:1001E000282F082E000C330B2053310929303105FC
:1001F000B8F4C901880F991FFC01E858FF4F61E06E
:1002000040815181452B09F060E088589F4F462F6F
:1002100050E0FC0151834083822F0E944900DECFD1
:100220008332B1F08A32D1F6E8E7F0E090E080E086
:100230000193119322B3A801082E01C0440F0A9420
:10024000EAF7242B22BB01968830910589F7C6CFA7
:1002500088E7E82E80E0F82EC1E0F70111921192B4
:100260007F0160E08C2F0E944900CF5FC930A9F761
:10027000B5CFEE0FFF1F0590F491E02D0994F8948F
:10028000FFCF630069006F0075007B00810087006D
:020290008D00DF
:100292002D2B433D39363323383532303734312A2A
:0802A200000102030405060738
:00000001FF
