:100000000C942A000C9447000C9447000C94470071
:100010000C9447000C9447000C9447000C94470044
:100020000C9447000C9447000C9447000C94470034
:100030000C9447000C9447000C9447000C94470024
:100040000C9447000C9447000C9447000C94470014
:100050000C94470011241FBECFE5D8E0DEBFCDBF12
:1000600010E0A0E6B0E0E4EFF1E002C005900D92F0
:10007000A037B107D9F720E0A0E7B0E001C01D929A
:10008000A038B207E1F70E94A8000C94F8000C9485
:100090000000482F4150550B81E090E001C0880FCF
:1000A0004A95EAF792B3613019F4892B82BB08951F
:1000B00080958923FBCF90E080E0E1E0F0E045B35C
:1000C0009C012C5F3F4FBF0102C0660F771F2A952E
:1000D000E2F79B01462B45BB50E040E063B370E084
:1000E000042E02C0759567950A94E2F760FF20C060
:1000F00061E070E0042E02C0660F771F0A94E2F7F9
:1001000023B330E026233723232B59F4FC01EE0FD1
:10011000FF1FEE0FFF1FE05AFF4FE40FF51F808116
:100120000895EFE1FEE43197F1F700C00000E8CF59
:100130004F5F5F4F4430510589F635B32095232337
:1001400025BB01968430910509F0B9CF88E5089563
:100150008FEF81BB14BA01E010E00E945B00282FF2
:10016000082E000C330B2053310929303105B8F427
:10017000C901880F991FFC01E059FF4F61E04081E0
:100180005181452B09F060E080599F4F462F50E088
:10019000FC0151834083822F0E944900DECF8332CD
:1001A00099F08A32D1F680E7E82E80E0F82EC1E09F
:1001B000F701119211927F0160E08C2F0E9449009B
:1001C000CF5FC930A9F7C9CFE0E7F0E090E080E069
:1001D0000193119322B3A801082E01C0440F0A9481
:1001E000EAF7242B22BB01968830910589F7B5CF19
:0401F000F894FFCFB1
:1001F4002A30233D313233433435362B3738392DC9
:00000001FF
